:020000000A28CC
:100014000D208312031383160317880189018316A5
:10002400031387018501831203138501870183125A
:10003400031308182E20881835200508002187008E
:100044001928FA30F000F00B25280800C830F20017
:100054002320F20B2A280800232008182F28850AB9
:10006400051A850108002320881836288503851B76
:0E0074003C20080005128512051385130800B4
:100200008A010A1482073F3406345B344F34663463
:100210006D347D3407347F34673477347C3439343B
:060220005E3479347134F4
:04400E00D420FF3F7C
:00000001FF
